:200000000C9462000C947F000C947F000C947F000C947F000C947F000C947F000C9432064C
:200020000C947F000C947F000C947F000C947F000C947F000C947F000C947F000C947F00C8
:200040000C944B020C947F000C947F000C947F000C947F000C947F000C947F000C947F00DA
:200060000C947F000C947F000000000800020100000304070000000000000000010204081A
:200080001020408001020408102001020408102004040404040404040202020202020303C0
:2000A000030303030000000023002600290000000000250028002B000000000024002700FF
:2000C0002A00020011241FBECFEFD8E0DEBFCDBF11E0A0E0B1E0E8EFFDE002C005900D9297
:2000E000A230B107D9F721E0A2E0B1E001C01D92A333B207E1F70E948F060C94FA060C9444
:2001000000001F93CF93DF93182F129516951770D82FDF7164E670E080E090E00E94B8021C
:20012000C0E0C11719F120E030E0A90160EB74E085E0D4FF07C00E94EE0362ED70E080E053
:2001400090E006C00E94EE0366E470E080E090E00E94B80285E00E941D0666E470E080E0EC
:2001600090E00E94B802DD0FCF5FDBCF68EC70E080E090E0DF91CF911F910C94B80261E060
:2001800081E10E948F036CE271E080E090E00E94B80284E90E94810062E370E080E090E009
:2001A0000E94B80260E081E10C948F03109214011092130110921201109211011092100186
:2001C00081E080930F0110920E0110920D0180930C0180930B0180930A0110920601109292
:2001E000070110920801109209011092050110920401109203011092020161E08EE00E94B5
:20020000560360E08CE00E94560360E088E00E94560360E089E00E94560360E08AE00E944B
:20022000560360E08BE00E94560360E082E10E94560360E084E10E94560360E083E00E943C
:20024000560360E08DE00E94560361E081E10E94560361E083E10E94560361E085E10E9416
:20026000560361E087E00E94560360E081E10E948F0360E083E10E948F0360E085E10E948C
:200280008F0360E087E00E948F0361E084E10E948F0361E083E00E948F030C94BF00CF937E
:2002A000DF938CE00E94C503019709F080C060E081E10E948F0360E083E10E948F0360E037
:2002C00085E10E948F0360E087E00E948F0382E10E94C503EC0184E10E94C50321E0019787
:2002E00009F020E081E0219709F080E0C22FC82B83E00E94C50321E0019709F020E0C22B63
:200300008DE00E94C503CC2331F08CE00E94C5030197D9F3DCCF0197C1F38091060190918C
:200320000701A0910801B0910901833221E09207A105B105D1F130F50497A105B105B9F5F9
:2003400061E081E10E948F036CE271E080E090E00E94B80288E40E9481008AE90E948100D6
:200360008CE70E9481008EE80E94810062E370E080E090E00E94B80260E081E1DF91CF911B
:200380000C948F03863421E09207A105B10549F084339240A105B10551F481E080930C0197
:2003A00006C0DF91CF910C94D60010920C01DF91CF910895CF93C1E082E10E94C5030197AD
:2003C000C9F4C093000161E083E10E948F0382E10E94C503019719F40E944F01F8CF8091F7
:2003E0000C01882349F360E273E080E090E00E94B802E2CFC3E08DE00E94C5030197D9F4B8
:20040000C09300018DE00E94C503019749F461E081E10E948F0361E087E00E948F03F2CF68
:2004200080910C01882339F360E273E080E090E00E94B802E0CFC2E083E00E94C503892B34
:20044000C9F4C093000161E081E10E948F0383E00E94C503892B19F40E944F01F8CF80915C
:200460000C01882349F360E273E080E090E00E94B802E2CF60E081E10E948F0360E083E19C
:200480000E948F0360E085E10E948F0360E087E0CF910C948F031F920F920FB60F92112428
:2004A0002F933F938F939F93AF93BF938091160190911701A0911801B091190130911501E3
:2004C00023E0230F2D3720F40196A11DB11D05C026E8230F0296A11DB11D20931501809347
:2004E000160190931701A0931801B093190180911A0190911B01A0911C01B0911D01019654
:20050000A11DB11D80931A0190931B01A0931C01B0931D01BF91AF919F918F913F912F91C1
:200520000F900FBE0F901F9018953FB7F89480911A0190911B01A0911C01B0911D0126B5E1
:20054000A89B05C02F3F19F00196A11DB11D3FBF6627782F892F9A2F620F711D811D911DFB
:2005600042E0660F771F881F991F4A95D1F708958F929F92AF92BF92CF92DF92EF92FF92E3
:200580006B017C010E9495024B015C01C114D104E104F104F1F00E949E060E94950268192B
:2005A00079098A099B09683E73408105910570F321E0C21AD108E108F10888EE880E83E0A3
:2005C000981EA11CB11CC114D104E104F10429F7DDCFFF90EF90DF90CF90BF90AF909F90F2
:2005E0008F900895789484B5826084BD84B5816084BD85B5826085BD85B5816085BDEEE6ED
:20060000F0E0808181608083E1E8F0E01082808182608083808181608083E0E8F0E0808196
:2006200081608083E1EBF0E0808184608083E0EBF0E0808181608083EAE7F0E0808184604C
:2006400080838081826080838081816080838081806880831092C1000895833081F028F4A0
:20066000813099F08230A1F008958730A9F08830B9F08430D1F4809180008F7D03C08091C5
:2006800080008F7780938000089584B58F7702C084B58F7D84BD08958091B0008F7703C0F6
:2006A0008091B0008F7D8093B0000895CF93DF9390E0FC01E458FF4F2491FC01E057FF4F0B
:2006C0008491882349F190E0880F991FFC01E854FF4FA591B49182559F4FFC01C591D491E2
:2006E0009FB7611108C0F8948C91209582238C93888182230AC0623051F4F8948C91322FEF
:20070000309583238C938881822B888304C0F8948C91822B8C939FBFDF91CF9108950F93E8
:200720001F93CF93DF931F92CDB7DEB7282F30E0F901E859FF4F8491F901E458FF4F14913B
:20074000F901E057FF4F04910023C9F0882321F069830E942D036981E02FF0E0EE0FFF1F4B
:20076000E255FF4FA591B4919FB7F8948C91611103C01095812301C0812B8C939FBF0F9073
:20078000DF91CF911F910F910895CF93DF93282F30E0F901E859FF4F8491F901E458FF4F3F
:2007A000D491F901E057FF4FC491CC2391F081110E942D03EC2FF0E0EE0FFF1FEC55FF4F97
:2007C000A591B4912C912D2381E090E021F480E002C080E090E0DF91CF9108953F924F929A
:2007E0005F926F927F928F929F92AF92BF92CF92DF92EF92FF920F931F93CF93DF9300D036
:2008000000D0CDB7DEB78B0129013A0190910101981721F09F3F09F0DAC104C0E2ECF0E047
:20082000349081C080930101E2ECF0E0E491EF3F09F4CDC1E13031F1E23009F44BC0E11193
:2008400071C014BC15BC94B5926094BD95B5916095BD282F30E0F901E057FF4FE491F0E082
:20086000EE0FFF1FE255FF4F4591549150932E0140932D01F901E458FF4F249120932C01F1
:20088000312C53C0109280001092810090918100986090938100909181009160909381002E
:2008A000282F30E0F901E057FF4FE491F0E0EE0FFF1FE255FF4F45915491509327014093D4
:2008C0002601F901E458FF4F249120932501332433942BC01092B0001092B1009091B00060
:2008E00092609093B0009091B10091609093B100282F30E0F901E057FF4FE491F0E0EE0F74
:20090000FF1FE255FF4F459154915093200140931F01F901E458FF4F249120931E0152E045
:20092000352E03C03E2E37FC52C161E00E9456034801A12CB12C832D8D7F09F0C7C060E034
:2009400072E18AE790E0A50194010E94C10629833A834B835C8369017A0181E0C81AD108A8
:20096000E108F1089FEFC916D104E104F10409F008F49AC060E472E48FE090E0A501940176
:200980000E94C10669017A01E1E0CE1AD108E108F108F2E03F1219C08FEFC816D104E10493
:2009A000F10409F008F48AC060E970ED83E090E0A50194010E94C10669017A0191E0C91AAD
:2009C000D108E108F10883E001C082E0EFEFCE16D104E104F10409F008F467C068E478EE97
:2009E00081E090E0A50194010E94C10669017A01F1E0CF1AD108E108F1083320E1F082E0A2
:200A000038121BC09FEFC916D104E104F10409F008F4DBC064E274EF80E090E0A501940151
:200A20000E94C10669017A01E1E0CE1AD108E108F10885E003C083E001C084E0FFEFCF1681
:200A4000D104E104F10489F180F162E17AE780E090E0A50194010E94C10669017A0181E09E
:200A6000C81AD108E108F108311002C084E001C086E09FEFC916D104E104F104B1F0A8F0F6
:200A8000C980DA80EB80FC809AE0F594E794D794C7949A95D1F7E1E0CE1AD108E108F1082D
:200AA000332031F087E00BC081E0332011F007C085E095B5987F982B95BD38C082E09091BE
:200AC000B100987F982B9093B10030C060E072E18AE790E0A50194010E94C10669017A01CA
:200AE000F1E0CF1AD108E108F108C114D10481E0E806F10488F068E478EE81E090E0A501F2
:200B000094010E94C10669017A0191E0C91AD108E108F10893E001C091E0E1E03E1206C067
:200B200080918100887F892B80938100411451046104710471F0D801AA0FBB1FA30192014C
:200B40000E94E00628EE33E040E050E00E949F0603C02FEF3FEFA901F1E03F16A1F082E07B
:200B6000381619F1311033C0C7BC20932F0130933001409331015093320180916E00826013
:200B800080936E0024C0D0928900C0928800209328013093290140932A0150932B01809144
:200BA0006F00826080936F0012C0C092B300209321013093220140932301509324018091C0
:200BC000700082608093700002C084E078CF0F900F900F900F90DF91CF911F910F91FF90A8
:200BE000EF90DF90CF90BF90AF909F908F907F906F905F904F903F900895813039F018F0A2
:200C0000823051F0089510926E00089580916F008D7F80936F000895809170008D7F80934C
:200C2000700081E08093B0008091B100887F84608093B1001092B3000895CF93C82F809153
:200C400001018C1307C0E2ECF0E084919FEF9093010101C08FEF0E94FD0560E08C2FCF9188
:200C60000C948F031F920F920FB60F9211242F933F934F935F936F937F938F939F93AF9343
:200C8000BF93EF93FF938091210190912201A0912301B0912401892B8A2B8B2B51F190913A
:200CA0001E01E0911F01F09120018081892780838091210190912201A0912301B0912401FC
:200CC000181619061A061B06C4F48091210190912201A0912301B09124010197A109B109A0
:200CE0008093210190932201A0932301B093240104C0809101010E941D06FF91EF91BF91BE
:200D0000AF919F918F917F916F915F914F913F912F910F900FBE0F901F90189508950E942D
:200D2000F2020E948E060E94D600C0E0D0E00E94DA012097E1F30E940000F9CF0895A1E22F
:200D40001A2EAA1BBB1BFD010DC0AA1FBB1FEE1FFF1FA217B307E407F50720F0A21BB30B32
:200D6000E40BF50B661F771F881F991F1A9469F760957095809590959B01AC01BD01CF01F1
:200D80000895052E97FB1EF400940E94D80657FD07D00E949F0607FC03D04EF40C94D806C3
:200DA00050954095309521953F4F4F4F5F4F089590958095709561957F4F8F4F9F4F08951B
:200DC0000E94EB06A59F900DB49F900DA49F800D911D11240895A29FB001B39FC001A39F18
:200DE000700D811D1124911DB29F700D811D1124911D0895F894FFCF01FFFFFFFFFFFFFFB5
:200E0000FFCF0101FF00FFFFFFFFFFFFFFFFFFFFFFFFFFFFFFFFFFFFFFFFFFFFFFFFFFFF1D
:200E2000FFFFFFFFFFFFFFFFFFFFFFFFFFFFFFFFFFFFFFFFFFFFFFFFFFFFFFFFFFFFFFFFD2
:200E4000FFFFFFFFFFFFFFFFFFFFFFFFFFFFFFFFFFFFFFFFFFFFFFFFFFFFFFFFFFFFFFFFB2
:200E6000FFFFFFFFFFFFFFFFFFFFFFFFFFFFFFFFFFFFFFFFFFFFFFFFFFFFFFFFFFFFFFFF92
:200E800008958730A9F08830B9F08430D1F4809180008F7D03C0809180008F778093800001
:200EA000089584B58F7702C084B58F7D84BD08958091B0008F7703C08091B0008F7D809307
:200EC000B0000895CF93DF9390E0FC01E458FF4F2491FC01E057FF4F8491882349F190E059
:200EE000880F991FFC01E255FF4FA591B4918C559F4FFC01C591D4919FB7611108C0F89403
:200F00008C91209582238C93888182230AC0623051F4F8948C91322F309583238C9388814F
:200F2000822B888304C0F8948C91822B8C939FBFDF91CF9108950F931F93CF93DF931F921C
:200F4000CDB7DEB7282F30E0F901E859FF4F8491F901E458FF4F1491F901E057FF4F049136
:200F60000023C9F0882321F069830E9439076981E02FF0E0EE0FFF1FEC55FF4FA591B4911D
:200F80009FB7F8948C91611103C01095812301C0812B8C939FBF0F90DF91CF911F910F912B
:200FA0000895FC01818D228D90E0805C9F4F821B91098F7399270895FC01918D828D981731
:200FC00031F0828DE80FF11D858D90E008958FEF9FEF0895FC01918D828D981761F0828DDB
:200FE000DF01A80FB11D5D968C91928D9F5F9F73928F90E008958FEF9FEF08958EE699E089
:20100000892B49F080E090E0892B29F00E946E0981110C9400000895FC01848DDF01A80FB9
:20102000B11DA35ABF4F2C91848D90E001968F739927848FA689B7892C93A089B1898C917F
:2010400080648C93938D848D981306C00288F389E02D80818F7D80830895CF93DF93EC016A
:20106000888D8823C9F0EA89FB89808185FD05C0A889B9898C9186FD0FC00FB607FCF5CF4A
:20108000808185FFF2CFA889B9898C9185FFEDCFCE010E940C08E7CFDF91CF910895CF9231
:2010A000DF92FF920F931F93CF93DF931F92CDB7DEB76C0181E0D60158968C9358975B96AA
:2010C0009C915B975C968C915C97981307C05096ED91FC915197808185FD2EC0F601038DAC
:2010E00010E00F5F1F4F0F731127F02EF601848DF81211C00FB607FCF9CFD6015096ED919E
:20110000FC915197808185FFF1CFC60169830E940C086981EBCF838DE80FF11DE35AFF4F68
:201120006083D6015B960C935B975296ED91FC915397808180620CC0D6015696ED91FC9119
:20114000579760835096ED91FC91519780818064808381E090E00F90DF91CF911F910F916D
:20116000FF90DF90CF900895BF92CF92DF92EF92FF92CF93DF93EC016A017B01B22EE88947
:20118000F98982E08083411581EE580761057105A1F060E079E08DE390E0A70196010E947D
:2011A000EB0A21503109410951095695479537952795211580E1380798F0E889F9891082B9
:2011C00060E874E88EE190E0A70196010E94EB0A2150310941095109569547953795279518
:2011E000EC85FD853083EE85FF852083188EEC89FD89B082EA89FB89808180618083EA898D
:20120000FB89808188608083EA89FB89808180688083EA89FB8980818F7D8083DF91CF91A4
:20122000FF90EF90DF90CF90BF9008951F920F920FB60F9211242F938F939F93EF93FF93CF
:20124000E091A502F091A6028081E091AB02F091AC0282FD12C090818091AE028F5F8F73EC
:201260002091AF02821751F0E091AE02F0E0EB56FD4F958F8093AE0201C08081FF91EF91FB
:201280009F918F912F910F900FBE0F901F9018951F920F920FB60F9211242F933F934F9374
:2012A0005F936F937F938F939F93AF93BF93EF93FF9385E992E00E940C08FF91EF91BF9136
:2012C000AF919F918F917F916F915F914F913F912F910F900FBE0F901F90189585E992E0C7
:2012E0000E94D10721E0892B09F420E0822F0895109298021092970288EE93E0A0E0B0E004
:201300008093990290939A02A0939B02B0939C0284E991E0909396028093950285EC90E08B
:201320009093A2028093A10284EC90E09093A4028093A30280EC90E09093A6028093A5026E
:2013400081EC90E09093A8028093A70282EC90E09093AA028093A90286EC90E09093AC0209
:201360008093AB021092AE021092AF021092B0021092B1020895CF92DF92EF92FF920F933C
:201380001F93CF93DF936C017A01EB01E60EF71E00E010E0CE15DF0561F06991D601ED91B3
:2013A000FC910190F081E02DC6010995080F191FF1CFC801DF91CF911F910F91FF90EF9026
:2013C000DF90CF9008956115710581F0DB010D900020E9F7AD0141505109461B570BDC0193
:2013E000ED91FC910280F381E02D099480E090E008950C94E309DC01ED91FC910190F0815F
:20140000E02D099460EA71E00C94E3090F931F93CF93DF93EC010E94E3098C01CE010E945A
:20142000020A800F911FDF91CF911F910F9108958F929F92AF92BF92CF92DF92EF92FF92DC
:201440000F931F93CF93DF93CDB7DEB7A1970FB6F894DEBF0FBECDBF7C01C42EE52FCB017D
:20146000D22E19A221E02D1510F02AE0D22E8E010F5D1F4F8D2C912CA12CB12C6C2D7E2F95
:20148000A50194010E94EB0A8C2DD29E80191124015011098A3014F4805D01C0895CF801DA
:2014A0008083211531054105510521F0C22EE32FCA01E4CFB801C7010E94E309A1960FB685
:2014C000F894DEBF0FBECDBFDF91CF911F910F91FF90EF90DF90CF90BF90AF909F908F90B2
:2014E0000895CF92DF92EF92FF920F931F93CF93DF93EC016A017B012115310579F4E8812D
:20150000F9810190F081E02D642FDF91CF911F910F91FF90EF90DF90CF9009942A30310586
:20152000E9F477FF1AC06DE20E94FB098C0144275527BA014C195D096E097F092AE0CE01B7
:201540000E94180A800F911FDF91CF911F910F91FF90EF90DF90CF9008952AE0B701A60186
:20156000CE01DF91CF911F910F91FF90EF90DF90CF900C94180A9A01AB01662757FD6095C1
:20158000762F0C94710A0F931F93CF93DF93EC019A01AB01662757FD6095762F0E94710A97
:2015A0008C01CE010E94020A800F911FDF91CF911F910F91089508950E94FE060E94DB0A5B
:2015C0000E948900CEEFD7E00E94B9002097E1F30E94FE07F9CFA1E21A2EAA1BBB1BFD01B3
:2015E0000DC0AA1FBB1FEE1FFF1FA217B307E407F50720F0A21BB30BE40BF50B661F771F61
:20160000881F991F1A9469F760957095809590959B01AC01BD01CF010895EE0FFF1F059005
:20162000F491E02D0994F894FFCF000032038000E8034D50553630353020636F6E6E65632E
:2016400074696F6E207375636365737366756C004D50553630353020636F6E6E6563746940
:201660006F6E206661696C656400496E697469616C697A696E672049324320646576696314
:2016800065732E2E2E0054657374696E672064657669636520636F6E6E656374696F6E73B7
:2016A0002E2E2E00612F673A0900000000002004F303C803D003E303F203000000004F087C
:2016C000BB09D107EA07DC072D080D0A006E616E00696E66006F76660000FFFFFFFFFFFF8F
:2016E000FFFFFFFFFFFFFFFFFFFFFFFFFFFFFFFFFFFFFFFFFFFFFFFFFFFFFFFFFFFFFFFF0A
:20170000760110927701109278011092640110926301109266011092650110926801109252
:20172000670110925E0110925D011092600110925F01109262011092610110925801109295
:20174000570110925A011092590110925C0110925B0110924B0110924C0110924D011092CC
:201760004E0110924F011092500110925101109252011092530110925401109255011092C5
:201780005601089584ED91E00E94151340E85AE166E070E084ED91E00E941F1326E040E0D4
:2017A00052EC61E070E081EA92E00E94421863EE71E081EA92E00E94B91981EC91E00E940E
:2017C0003B0F60E082E00E94F01665EC71E081EA92E00E94B91981EC91E00E949B0F8823AD
:2017E00019F067EA71E002C06DE871E081EA92E00E94B91965E571E081EA92E00E94B91999
:2018000081EA92E00E945F17892B31F081EA92E00E947817892BA1F781EA92E00E945F17AF
:20182000892BD1F381EA92E00E945F17892B31F081EA92E00E947817892BA1F761E471E076
:2018400081EA92E00E94B91981EC91E00E9495058093BD016CED70E081EC91E00E942510EE
:201860006CE470E081EC91E00E942B106BEA7FEF81EC91E00E9431106CEF76E081EC91E0FA
:201880000E941F108091BD01811130C061E371E081EA92E00E94B91961E081EC91E00E947F
:2018A000371062EF70E081EA92E00E94B91943E050E061E975E080E00E94711581EC91E097
:2018C0000E94F40E8093BE0168EC70E081EA92E00E94B91981E08093BF018091C301909173
:2018E000C4019093BC018093BB0114C067EA70E081EA92E00E9487194AE050E06091BD01D7
:2019000081EA92E00E947B1A65EA70E081EA92E00E94B91961E08DE00C94F016EF92FF925D
:201920000F931F93CF93DF9300D0CDB7DEB7062F142F682F84ED91E029833A830E94421345
:20194000602F84ED91E00E94D6122981022FE22E3A81F32E8E2D801B811740F4F7016191B9
:201960007F0184ED91E00E94D612F4CF84ED91E00E945F1391E0811190E0892F0F900F9059
:20198000DF91CF911F910F91FF90EF900895CF93DF931F92CDB7DEB749839E012F5F3F4F57
:2019A00041E00E948E0C0F90DF91CF910895DF92EF92FF920F931F93CF93DF93C62F042FEB
:2019C0007901682F84ED91E00E9442136C2F84ED91E00E94D61210E0000F111FD12CCD2DF0
:2019E000D0E0C017D1078CF4CC0FDD1FCE0DDF1D698184ED91E00E94D612688184ED91E039
:201A00000E94D612D394D394EACF84ED91E00E945F1391E0811190E0892FDF91CF911F9114
:201A20000F91FF90EF90DF900895CF93DF9300D0CDB7DEB75A8349839E012F5F3F4F41E0AA
:201A40000E94D70C0F900F90DF91CF9108953F924F925F926F927F928F929F92AF92BF92BD
:201A6000CF92DF92EF92FF920F931F93CF93DF9300D000D000D0CDB7DEB7682E562E742E15
:201A80003A8329830E9435166B017C01312C412C872D90E09C838B834801A12CB12C3714AE
:201AA000B0F5662D84ED91E00E944213652D84ED91E00E94D61284ED91E00E945F13662D8E
:201AC00084ED91E00E9442134B815C81431951094132510514F040E250E0662D84ED91E03A
:201AE0000E943F1384ED91E00E947E12892B59F10115110579F10E9435166C197D098E09BB
:201B00009F09681579058A059B0520F11CC00115110589F10E9435166C197D098E099F0929
:201B200020E030E0601771078207930720F1872D90E0242D332727FD309528173907DCF46B
:201B400044244A9418C0872D90E2971508F480E2380EA5CFE981FA81E40DF11D47FCFA95C7
:201B6000FE83ED8384ED91E00E948612ED81FE8180834394B7CF842D26960FB6F894DEBFB0
:201B80000FBECDBFDF91CF911F910F91FF90EF90DF90CF90BF90AF909F908F907F906F9006
:201BA0005F904F903F9008950F931F9389019A0141E00E94270D1F910F910895CF92DF92BC
:201BC000EF92FF920F931F93CF93DF931F92CDB7DEB7C42ED22E9701AE014F5F5F4F0E94CA
:201BE000D40D8823F1F04C2D50E04D1951094F5F5F4F61E070E002C0660F771FDA94E2F70E
:201C000061507109042E01C0660F0A94EAF72981262330E002C0359527954A95E2F7F801B6
:201C200020830F90DF91CF911F910F91FF90EF90DF90CF900895EF92FF920F931F93CF9301
:201C4000DF931F92CDB7DEB7182F062FF42EE22E2091060130910701AE014F5F5F4F0E946C
:201C6000D40D898121E030E00F2C01C0220F0A94EAF7EE2019F0482F422B03C0422F4095B8
:201C800048234983602F812F0E94C70C0F90DF91CF911F910F91FF90EF900895DF92EF92FD
:201CA000FF920F931F93CF93DF931F92CDB7DEB7F82EE62ED42E122F2091060130910701A3
:201CC000AE014F5F5F4F0E94D40D882319F14D2D50E0411B51094F5F5F4FE1E0F0E002C0B2
:201CE000EE0FFF1F1A95E2F73197042E01C0EE0F0A94EAF701C0000F4A95EAF74E2F409528
:201D000089814823E0234E2B49836E2D8F2D0E94C70C01C080E00F90DF91CF911F910F915A
:201D2000FF90EF90DF90089528E6FC0120830895462F69E1FC0180810C94C70C0F93062F37
:201D400023E045E06AE1FC0180810E944E0E0F9108950F93062F23E042E06AE1FC01808192
:201D60000E944E0E0F9108950F93062F22E044E06BE1FC0180810E944E0E0F9108950F9304
:201D8000062F22E044E06CE1FC0180810E944E0E0F910895462F6FE1FC0180810C94C70C2C
:201DA000462F60E2FC0180810C94C70C462F61E2FC0180810C94C70C462F62E2FC0180811B
:201DC0000C94C70C643048F4262F220F260F2B5D622FFC0180810C94C70C0895462F68E31E
:201DE000FC0180810C94C70CCF93DF93EC012091060130910701AC014F5F5F4F6AE38881D1
:201E00000E94D40D8981DF91CF910895262F46E06AE6FC0180810C941B0E262F45E06AE66C
:201E2000FC0180810C941B0E21E042E06AE6FC0180810C941B0E21E041E06AE6FC01808131
:201E40000C941B0E21E047E06BE6FC0180810C941B0E262F46E06BE6FC0180810C941B0EE6
:201E60000F93062F23E042E06BE6FC0180810E944E0E0F910895CF93DF93EC0161E00E9438
:201E8000300F60E0CE010E94B40E60E0CE010E94BF0E60E0CE01DF91CF910C94290F0F93B9
:201EA0001F93CF93DF93EC0100910601109107019C012F5F3F4F42E062E788810E94270D6B
:201EC000898190E0982F88272A81822BDF91CF911F910F9108950F931F939B01442351F065
:201EE000009106011091070164E7FC0180810E94270D02C0FB0110821F910F910895EF92C4
:201F0000FF920F931F93CF93DF93EC01E0900601F09007018C010F5F1F4F26E046E065E73B
:201F200088810E94DE0D8981DF91CF911F910F91FF90EF9008950E947F0F91E0843309F0E5
:201F400090E0892F0895262F40E060E0FC0180810C941B0EEF92FF920F931F93CF93DF9306
:201F6000EC01E0900601F09007018C010F5F1F4F26E046E060E088810E94DE0D8981DF9190
:201F8000CF911F910F91FF90EF9008950F93062F26E046E060E0FC0180810E944E0E0F9107
:201FA0000895EF92FF920F931F93CF93DF93EC01E0900601F09007018C010F5F1F4F26E0EF
:201FC00046E061E088810E94DE0D8981DF91CF911F910F91FF90EF9008950F93062F26E052
:201FE00046E061E0FC0180810E944E0E0F910895EF92FF920F931F93CF93DF93EC01E090AA
:202000000601F09007018C010F5F1F4F26E046E062E088810E94DE0D8981DF91CF911F913A
:202020000F91FF90EF9008950F93062F26E046E062E0FC0180810E944E0E0F910895AB012B
:202040006AE0FC0180810C94150DAB0163E1FC0180810C94150DAB0165E1FC0180810C9436
:20206000150DAB0167E1FC0180810C94150D262F47E06AE6FC0180810C941B0E21E043E0D3
:202080006AE6FC0180810C941B0E6F712111606241116064462F6DE6FC0180810C94C70C06
:2020A000462F6EE6FC0180810C94C70C5F926F927F928F929F92AF92BF92CF92DF92EF92AC
:2020C000FF920F931F93CF93DF937C015B016A01622E702E20E040E0662D0E944510602F9C
:2020E000C7010E945010C0E0D0E0812C99249394CC15DD05A8F5CE014096C816D90618F467
:202100005C2C5C1A02C0A0E15A2E252D30E0C401871991098217930714F4572C5194009161
:2021200006011091070195012C0F3D1F452D6FE6F70180810E94270DC50DD11D750CCC150A
:20214000DD05B0F6711001C0639420E040E0662DC7010E944510672DC7010E945010C8CF57
:20216000DF91CF911F910F91FF90EF90DF90CF90BF90AF909F908F907F906F905F900895ED
:202180002F923F924F925F926F927F928F929F92AF92BF92CF92DF92EF92FF920F931F93AD
:2021A000CF93DF9300D000D01F92CDB7DEB79D838C837B836A834A01322ED02EE98220E0B3
:2021C00040E0632D0E944510602F8C819D810E945010E980EE2029F080E190E00E94C11EBA
:2021E0005C01CC2039F080E190E00E94C11E582E292E02C0512C212CE12CF12CE814F9048F
:2022000008F07AC0C70140968816990618F4482C4E1802C010E1412E242D30E080E091E077
:202220008D1991098217930714F44D2C4194EA81FB81EE0DFF1DCC2059F0852DA52DB22D3F
:202240009A2F981B941530F494919D933196F8CF5E2E2F2E252D322D442D6FE6AC81BD8187
:202260008C910E948E0C642C712CB981BB2369F1A114B10451F120E040E0632D8C819D81DF
:202280000E9445106D2D8C819D810E94501000910601109107019501442D6FE6EC81FD81F8
:2022A00080810E94270DA301B501852D922D0E94B220892B51F0C5010E94591FCC2049F10D
:2022C000852D922D0E94591F24C0E60CF71CD40CE814F90408F092CFD11001C0339420E0EF
:2022E00040E0632D8C819D810E9445106D2D8C819D810E94501082CFF981FF2319F0C50189
:202300000E94591FCC2039F0852D922D0E94591F02C080E001C081E00F900F900F900F9043
:202320000F90DF91CF911F910F91FF90EF90DF90CF90BF90AF909F908F907F906F905F9029
:202340004F903F902F900895CF92EF920F93CC24C3940E94C0100F91EF90CF9008952F925A
:202360003F924F925F926F927F928F929F92AF92BF92CF92DF92EF92FF920F931F93CF932A
:20238000DF9300D01F92CDB7DEB74C017B836A833A01D22E222339F088E090E00E94C11EF7
:2023A000182FF92E02C010E0F12C212C312C2614370408F051C0EA81FB81E20DF31DC10110
:2023C00003965C01DD20C1F04491F10131968A819B81E80FF91F0491F1013296E80FF91F37
:2023E0005490511044C0F4E02F0E311CEA81FB81EA0DFB1D84910DC0408101815280EA81DE
:20240000FB81E80FF91F51100DC084E0280E311C80818130D1F442E368E3F40180810E949D
:20242000C70CC5CF1E2FFF2E452C512CC12CEE24E394242FA201612F7F2DC4010E94C010EE
:2024400012012A0C3B1C8111B2CFDD2061F0812F9F2D0E94591F07C0DD2039F0812F9F2D7C
:202460000E94591F02C080E024C081E022C0252C312CF2E0F51548F4B101812F9F2D498339
:202480000E94E81F182FF92E4981812F9F2DA0E0B0E02A813B812A0D3B1DA215B30520F654
:2024A000F901EA0FFB1F5491FC015193CF011196F4CF0F900F900F90DF91CF911F910F9112
:2024C000FF90EF90DF90CF90BF90AF909F908F907F906F905F904F903F902F90089521E03C
:2024E0000C94AF11462F60E7FC0180810C94C70C462F61E7FC0180810C94C70C809104020A
:2025000090E020910502821B910908952091050280910402281750F4E22FF0E0EA5FFD4FF7
:20252000808190E02F5F2093050208958FEF9FEF0895E091050280910402E81730F4F0E01A
:20254000EA5FFD4F808190E008958FEF9FEF08950895CF92DF92EF92FF920F931F93CF93F8
:20256000DF937C01CB018A012091E001222389F0EB016B01C40ED51ECC15DD0569F0699192
:20258000D701ED91FC910190F081E02DC7010995F3CF642F0E941B14C801DF91CF911F9174
:2025A0000F91FF90EF90DF90CF900895CF93DF931F92CDB7DEB769832091E0012223D1F0E0
:2025C0002091E101203240F021E030E0FC013383228380E090E015C08091E201E82FF0E0FD
:2025E000ED51FE4F998190838F5F8093E2018093E10105C061E0CE0101960E941B1481E0AC
:2026000090E00F90DF91CF910895FC011382128248EE53E060E070E044835583668377839D
:2026200081E191E091838083089510920502109204021092E2011092E1010C9466139A0105
:20264000AB0160E074E284EF90E00E94991E205131094109510956954795379527952093AB
:20266000B8000895862F413208F040E266E072E00E9484131092050280930402089521E092
:202680000C94321381E08093E001609303021092E2011092E10108950F93062F21E04091B9
:2026A000E10163EE71E0809103020E94C8131092E2011092E1011092E0010F91089561E0F9
:2026C0000C944C1384ED91E00C9405131092930281E0809391021092900261E082E10E94A9
:2026E000291761E083E10E942917E9EBF0E080818E7F808380818D7F808388E48093B80017
:2027000085E48093BC000895413208F03FC0909193029111FCCF91E09093930220939102E8
:202720002FEF2093260210926B02240F20936A029093920290919202880F892B80939202E1
:2027400080919002813041F410929002809192028093BB0085EC01C085EE8093BC008091C4
:2027600093028130E1F380916B02841710F440916B022CE632E0FB01D9018A2F821B8417F9
:2027800018F48D918193F9CF842F089580E008950F93413208F046C0909193029111FCCFB0
:2027A00092E090939302009391029FEF9093260210926B0240936A02FB016CE672E0DB0126
:2027C0009A2F961B941718F491919D93F9CF1092920290919202880F892B809392028091C0
:2027E0009002813041F410929002809192028093BB0085EC01C085EE8093BC00222321F0F0
:20280000809193028230E1F3809126028F3F61F080912602803251F080912602803341F4E7
:2028200083E007C081E005C080E003C082E001C084E00F910895613298F4209193022430A8
:2028400089F460934802FC018AE492E0DC012A2F281B261718F421912D93F9CF80E00895E8
:2028600081E0089582E0089585ED8093BC008091BC0084FDFCCF10929302089585EC8093A9
:20288000BC001092930208951F920F920FB60F9211242F933F934F935F936F937F938F931D
:2028A0009F93AF93BF93EF93FF938091B900887F803609F49CC068F5883209F45BC090F4AB
:2028C000803109F454C038F4882309F4F5C0883009F44DC0F5C0883109F44CC0803209F4C5
:2028E0005DC0EEC0803409F468C048F4803309F455C0883309F0E4C080932602A8C0803583
:2029000009F44FC0883509F45DC0883409F0D8C0D5C0883909F4C6C0A8F4883709F467C02F
:2029200038F4883609F463C0803709F460C0C8C0883809F4B7C0803909F45FC0803809F077
:20294000BFC05BC0803B09F485C038F4803A09F466C0883A09F47EC0B3C0803C09F4A6C048
:20296000883C09F4A3C0883B09F489C0A9C08091920210C090916B0280916A02981770F52D
:20298000E0916B0281E08E0F80936B02F0E0E459FD4F80818093BB0085EC85C080932602C2
:2029A0008DC0E0916B0281E08E0F80936B028091BB00F0E0E459FD4F808390916B028091A7
:2029C0006A026DC0E0916B0281E08E0F80936B028091BB00F0E0E459FD4F80838091910236
:2029E00081116CC081E08093900284EA60C083E08093930210922702CFCF80912702803225
:202A000008F050C0E091270281E08E0F809327028091BB00F0E0E85DFD4F8083BDCF80910D
:202A20002702803230F4E0912702F0E0E85DFD4F10820E9434146091270270E0E0918C02B7
:202A4000F0918D0288E292E00995109227020E943E1436C084E0809393021092490210929C
:202A60004802E0918E02F0918F02099580914802811105C081E08093480210924A02E0918C
:202A8000490281E08E0F80934902F0E0E65BFD4F80818093BB0090914902809148029817ED
:202AA00008F47ACF85E88093BC000AC085EC8093BC001092930204C0109226020E943414DC
:202AC000FF91EF91BF91AF919F918F917F916F915F914F913F912F910F900FBE0F901F90DC
:202AE00018958230E8F4E82FF0E0EE0FFF1FEC56FD4F71836083813041F0809169008C7FCD
:202B0000842B80936900E89A089580916900440F551F440F551F837F842B80936900E99AB3
:202B200008951F920F920FB60F9211242F933F934F935F936F937F938F939F93AF93BF93A7
:202B4000EF93FF938091940290919502892B29F0E0919402F09195020995FF91EF91BF9118
:202B6000AF919F918F917F916F915F914F913F912F910F900FBE0F901F9018951F920F929C
:202B80000FB60F9211242F933F934F935F936F937F938F939F93AF93BF93EF93FF93809111
:202BA000960290919702892B29F0E0919602F09197020995FF91EF91BF91AF919F918F9145
:202BC0007F916F915F914F913F912F910F900FBE0F901F9018951F920F920FB60F92112431
:202BE0002F933F938F939F93AF93BF938091990290919A02A0919B02B0919C0230919802E8
:202C000023E0230F2D3720F40196A11DB11D05C026E8230F0296A11DB11D2093980280935B
:202C2000990290939A02A0939B02B0939C0280919D0290919E02A0919F02B091A0020196CC
:202C4000A11DB11D80939D0290939E02A0939F02B093A002BF91AF919F918F913F912F914A
:202C60000F900FBE0F901F9018952FB7F8946091990270919A0280919B0290919C022FBFF7
:202C800008953FB7F89480919D0290919E02A0919F02B091A00226B5A89B05C02F3F19F095
:202CA0000196A11DB11D3FBF6627782F892F9A2F620F711D811D911D42E0660F771F881F1F
:202CC000991F4A95D1F70895CF92DF92EF92FF92CF93DF936B017C010E944116EB01C1149D
:202CE000D104E104F10489F00E94911B0E9441166C1B7D0B683E734090F381E0C81AD1085E
:202D0000E108F108C851DC4FEACFDF91CF91FF90EF90DF90CF900895789484B5826084BD23
:202D200084B5816084BD85B5826085BD85B5816085BDEEE6F0E0808181608083E1E8F0E05B
:202D40001082808182608083808181608083E0E8F0E0808181608083E1EBF0E08081846018
:202D60008083E0EBF0E0808181608083EAE7F0E0808184608083808182608083808181607F
:202D800080838081806880831092C1000895833081F028F4813099F08230A1F00895873033
:202DA000A9F08830B9F08430D1F4809180008F7D03C0809180008F7780938000089584B540
:202DC0008F7702C084B58F7D84BD08958091B0008F7703C08091B0008F7D8093B000089551
:202DE000CF93DF9390E0FC01E557F54F2491FC01E156F54F8491882349F190E0880F991F2C
:202E0000FC01E354F54FA591B4918D54954FFC01C591D4919FB7611108C0F8948C91209554
:202E200082238C93888182230AC0623051F4F8948C91322F309583238C938881822B88832A
:202E400004C0F8948C91822B8C939FBFDF91CF9108950F931F93CF93DF931F92CDB7DEB77C
:202E6000282F30E0F901E958F54F8491F901E557F54F1491F901E156F54F04910023C9F052
:202E8000882321F069830E94C7166981E02FF0E0EE0FFF1FED54F54FA591B4919FB7F89445
:202EA0008C91611103C01095812301C0812B8C939FBF0F90DF91CF911F910F910895FC0134
:202EC000818D228D90E0805C9F4F821B91098F7399270895FC01918D828D981731F0828D5C
:202EE000E80FF11D858D90E008958FEF9FEF0895FC01918D828D981761F0828DDF01A80F35
:202F0000B11D5D968C91928D9F5F9F73928F90E008958FEF9FEF08958CEF98E1892B49F0EC
:202F200080E090E0892B29F00E94FC1881110C9400000895FC01848DDF01A80FB11DA35AFF
:202F4000BF4F2C91848D90E001968F739927848FA689B7892C93A089B1898C9180648C9308
:202F6000938D848D981306C00288F389E02D80818F7D80830895CF93DF93EC01888D88236E
:202F8000C9F0EA89FB89808185FD05C0A889B9898C9186FD0FC00FB607FCF5CF808185FF46
:202FA000F2CFA889B9898C9185FFEDCFCE010E949A17E7CFDF91CF910895CF92DF92FF92D8
:202FC0000F931F93CF93DF931F92CDB7DEB76C0181E0D60158968C9358975B969C915B974E
:202FE0005C968C915C97981307C05096ED91FC915197808185FD2EC0F601038D10E00F5F2E
:203000001F4F0F731127F02EF601848DF81211C00FB607FCF9CFD6015096ED91FC91519747
:20302000808185FFF1CFC60169830E949A176981EBCF838DE80FF11DE35AFF4F6083D60147
:203040005B960C935B975296ED91FC915397808180620CC0D6015696ED91FC9157976083C3
:203060005096ED91FC91519780818064808381E090E00F90DF91CF911F910F91FF90DF9001
:20308000CF900895BF92CF92DF92EF92FF92CF93DF93EC016A017B01B22EE889F98982E022
:2030A0008083411581EE580761057105A1F060E079E08DE390E0A70196010E94991E2150FA
:2030C0003109410951095695479537952795211580E1380798F0E889F989108260E874E83C
:2030E0008EE190E0A70196010E94991E21503109410951095695479537952795EC85FD85C8
:203100003083EE85FF852083188EEC89FD89B082EA89FB89808180618083EA89FB898081BB
:2031200088608083EA89FB89808180688083EA89FB8980818F7D8083DF91CF91FF90EF90DC
:20314000DF90CF90BF9008951F920F920FB60F9211242F938F939F93EF93FF93E091B1027A
:20316000F091B2028081E091B702F091B80282FD12C090818091BA028F5F8F732091BB0227
:20318000821751F0E091BA02F0E0EF55FD4F958F8093BA0201C08081FF91EF919F918F91B3
:2031A0002F910F900FBE0F901F9018951F920F920FB60F9211242F933F934F935F936F9391
:2031C0007F938F939F93AF93BF93EF93FF9381EA92E00E949A17FF91EF91BF91AF919F91E1
:2031E0008F917F916F915F914F913F912F910F900FBE0F901F90189581EA92E00E945F17E3
:2032000021E0892B09F420E0822F08951092A4021092A30288EE93E0A0E0B0E08093A5026C
:203220009093A602A093A702B093A80281E291E09093A2028093A10285EC90E09093AE02F5
:203240008093AD0284EC90E09093B0028093AF0280EC90E09093B2028093B10281EC90E0DD
:203260009093B4028093B30282EC90E09093B6028093B50286EC90E09093B8028093B7029F
:203280001092BA021092BB021092BC021092BD020895CF92DF92EF92FF920F931F93CF9379
:2032A000DF936C017A01EB01E60EF71E00E010E0CE15DF0561F06991D601ED91FC9101906A
:2032C000F081E02DC6010995080F191FF1CFC801DF91CF911F910F91FF90EF90DF90CF9037
:2032E00008956115710581F0DB010D900020E9F7AD0141505109461B570BDC01ED91FC9117
:203300000280F381E02D099480E090E00895EF92FF920F931F93CF93DF938C01FB01C0E03D
:20332000D0E064917F018FEFE81AF80A662361F0D801ED91FC910190F081E02DC8010995B2
:20334000C80FD91FF701EDCFCE01DF91CF911F910F91FF90EF9008950C947119DC01ED91CB
:20336000FC910190F081E02D09946DE271E00C9471190F931F93CF93DF93EC010E948719F3
:203380008C01CE010E94B519800F911FDF91CF911F910F9108958F929F92AF92BF92CF9220
:2033A000DF92EF92FF920F931F93CF93DF93CDB7DEB7A1970FB6F894DEBF0FBECDBF7C014D
:2033C000C42EE52FCB01D22E19A221E02D1510F02AE0D22E8E010F5D1F4F8D2C912CA12C67
:2033E000B12C6C2D7E2FA50194010E94991E8C2DD29E80191124015011098A3014F4805D15
:2034000001C0895CF8018083211531054105510521F0C22EE32FCA01E4CFB801C7010E944E
:203420007119A1960FB6F894DEBF0FBECDBFDF91CF911F910F91FF90EF90DF90CF90BF9039
:20344000AF909F908F900895CF92DF92EF92FF920F931F93CF93DF93EC016A017B0121152C
:20346000310579F4E881F9810190F081E02D642FDF91CF911F910F91FF90EF90DF90CF9028
:2034800009942A303105E9F477FF1AC06DE20E94AE198C0144275527BA014C195D096E09A9
:2034A0007F092AE0CE010E94CB19800F911FDF91CF911F910F91FF90EF90DF90CF9008954D
:2034C0002AE0B701A601CE01DF91CF911F910F91FF90EF90DF90CF900C94CB1921153105C8
:2034E00041F4DC01ED91FC910190F081E02D642F09940C94CB199A01462F50E060E070E01C
:203500000C946E1A4F925F926F927F928F929F92AF92BF92CF92DF92EF92FF920F931F9383
:20352000CF93DF93EC016A017B01B22E9A01AB01C701B6010E94801E882319F060E371E0B5
:2035400027C026013701E89477F82FEF3FEF4FE75FE7C301B2010E94801E81110DC02FEF3E
:203560003FEF4FE75FE7C301B2010E94591C18161CF464E371E00CC02FEF3FEF4FE75FE4AC
:20358000C701B6010E94CD1D1816ACF468E371E0CE01DF91CF911F910F91FF90EF90DF904A
:2035A000CF90BF90AF909F908F907F906F905F904F900C9471192FEF3FEF4FE75FECC70135
:2035C000B6010E94591C87FDE1CF20E030E0A901C701B6010E94591C87FF0AC06DE2CE012B
:2035E0000E94AE198C01F7FAF094F7F8F09402C000E010E0A12C60E070E080E09FE3AB145D
:2036000041F020E030E040E251E40E945D1CA394F6CF9B01AC01C701B6010E94931B6B0177
:203620007C010E94CA1C2B013C010E94F61C9B01AC01C701B6010E94921B6B017C012AE05E
:20364000B301A201CE010E94CB19080F191FBB2039F06CE371E0CE010E947119080F191F81
:203660007B2C772041F120E030E040E251E4C701B6010E94D81D6B017C010E94C51C4B01A5
:20368000AA2497FCA094BA2C2AE030E0B501A401CE010E94241A080F191FC501B4010E941F
:2036A000F81C9B01AC01C701B6010E94921B6B017C017A94D6CFC801DF91CF911F910F915A
:2036C000FF90EF90DF90CF90BF90AF909F908F907F906F905F904F9008950C94821A0F93DB
:2036E0001F93CF93DF93EC010E94821A8C01CE010E94B519800F911FDF91CF911F910F91EE
:20370000089508950E948C160E94811B0E94C20BCCE8D7E10E94740A2097E1F30E948C1722
:20372000F9CF08955058BB27AA270ED0FCC1EDD130F0F2D120F031F49F3F11F41EF4BDC1E5
:203740000EF4E095E7FBB3C1E92FFED180F3BA17620773078407950718F071F49EF516C28F
:203760000EF4E0950B2EBA2FA02D0B01B90190010C01CA01A0011124FF27591B99F0593F23
:2037800050F4503E68F11A16F040A22F232F342F4427585FF3CF469537952795A795F04065
:2037A0005395C9F77EF41F16BA0B620B730B840BBAF09150A1F0FF0FBB1F661F771F881FB5
:2037C000C2F70EC0BA0F621F731F841F48F4879577956795B795F7959E3F08F0B3CF93952C
:2037E000880F08F09927EE0F9795879508958DD158F080E891E009F49EEF8ED128F040E8F0
:2038000051E059F45EEF09C058C1C0C1E92FE0789BD168F3092E052AC1F32617370748075F
:20382000590738F00E2E07F8E02569F0E025E0640AC0EF6307F8009407FADB01B9019D013A
:20384000DC01CA01AD01EF9347D06DD10AD05F91552331F02BED3FE049E450FD49EC63CFC0
:203860000895DF93DD27B92FBF7740E85FE31616170648075B0710F4D92F93D19F938F93EF
:203880007F936F933AD2E8E6F0E01AD14CD12F913F914F915F9198D1DD2349F09058A2EAEC
:2038A0002AED3FE049EC5FE3D0785D274DDFDF913AC1D9D008F481E008950CD034C12CD187
:2038C00040F023D130F021F45F3F19F0F0C051115EC1F3C039D198F39923C9F35523B1F3DB
:2038E000951B550BBB27AA2762177307840738F09F5F5F4F220F331F441FAA1FA9F333D065
:203900000E2E3AF0E0E830D091505040E695001CCAF729D0FE2F27D0660F771F881FBB1F07
:20392000261737074807AB07B0E809F0BB0B802DBF01FF2793585F4F2AF09E3F510568F0E3
:20394000B6C025C15F3FECF3983EDCF3869577956795B795F7959F5FC9F7880F911D9695C0
:20396000879597F90895E1E0660F771F881FBB1F621773078407BA0720F0621B730B840BD8
:20398000BA0BEE1F88F7E095089504D06894B111FEC00895E1D088F09F5790F0B92F992790
:2039A000B751A0F0D1F0660F771F881F991F1AF0BA95C9F712C0B13081F0E8D0B1E0089521
:2039C000E5C0672F782F8827B85F39F0B93FCCF3869577956795B395D9F73EF490958095B8
:2039E000709561957F4F8F4F9F4F0895E89409C097FB3EF490958095709561957F4F8F4FAB
:203A00009F4F9923A9F0F92F96E9BB279395F695879577956795B795F111F8CFFAF4BB0F36
:203A200011F460FF1BC06F5F7F4F8F4F9F4F16C0882311F096E911C0772321F09EE8872F26
:203A4000762F05C0662371F096E8862F70E060E02AF09A95660F771F881FDAF7880F9695C1
:203A6000879597F90895990F0008550FAA0BE0E8FEEF16161706E807F907C0F01216130656
:203A8000E407F50798F0621B730B840B950B39F40A2661F0232B242B252B21F408950A2610
:203AA00009F4A140A6958FEF811D811D089597F99F6780E870E060E008959FEF80EC0895D4
:203AC000DF93CF931F930F93FF92EF92DF927B018C01689405C0DA2EEF0176D0FE01E894B8
:203AE000A5912591359145915591AEF3EF012CDEFE019701A801DA9479F7DF90EF90FF9022
:203B00000F911F91CF91DF91089500240A941616170618060906089500240A941216130610
:203B2000140605060895092E0394000C11F4882352F0BB0F40F4BF2B11F460FF04C06F5F19
:203B40007F4F8F4F9F4F089557FD9058440F551F59F05F3F71F04795880F97FB991F61F0D5
:203B60009F3F79F087950895121613061406551FF2CF4695F1DF08C0161617061806991F23
:203B8000F1CF86957105610508940895E894BB2766277727CB0197F9089565DF08F48FEFF5
:203BA00008959B01AC0160E070E080E89FE385CE0BD0B9CFAADF28F0AFDF18F0952309F007
:203BC00076CF7BCF1124E3CFBFDFA0F3959FD1F3950F50E0551F629FF001729FBB27F00D1C
:203BE000B11D639FAA27F00DB11DAA1F649F6627B00DA11D661F829F2227B00DA11D621F9A
:203C0000739FB00DA11D621F839FA00D611D221F749F3327A00D611D231F849F600D211D60
:203C2000822F762F6A2F11249F5750408AF0E1F088234AF0EE0FFF1FBB1F661F771F881FF3
:203C400091505040A9F79E3F510570F030CF9FCF5F3FECF3983EDCF3869577956795B795C2
:203C6000F795E7959F5FC1F7FE2B880F911D9695879597F9089511F40EF41FCF45C06CDF5F
:203C8000D0F39923D9F3CEF39F57550B87FF4AD00024A0E640EA900180585695979528F4B2
:203CA000805C660F771F881F20F026173707480730F4621B730B840B202931294A2BA6959B
:203CC00017940794202531254A2758F7660F771F881F20F026173707480730F4620B730BA8
:203CE000840B200D311D411DA09581F7B901842F9158880F9695879508959B01AC0158CF6E
:203D0000B2DE880B990B08959F3F31F0915020F4879577956795B795880F911D969587954F
:203D200097F9089591505040660F771F881FD2F70895A1E21A2EAA1BBB1BFD010DC0AA1FD3
:203D4000BB1FEE1FFF1FA217B307E407F50720F0A21BB30BE40BF50B661F771F881F991F10
:203D60001A9469F760957095809590959B01AC01BD01CF010895EE0FFF1F0590F491E02D4B
:203D80000994CF93DF938230910510F482E090E0E0914003F091410320E030E0A0E0B0E0FB
:203DA000309739F14081518148175907B8F04817590771F482819381109729F013969C9345
:203DC0008E9312972CC0909341038093400327C02115310531F04217530718F0A901DB01BB
:203DE00001C0EF019A01BD01DF010280F381E02DD7CF21153105F9F0281B390B24303105CA
:203E000080F48A819B816115710521F0FB019383828304C09093410380934003FE013296AB
:203E200044C0FE01E20FF31F8193919322503109398328833AC020913E0330913F03232BF4
:203E400041F4209102013091030130933F0320933E0320910001309101012115310541F4A5
:203E60002DB73EB74091040150910501241B350BE0913E03F0913F03E217F307A0F42E1BE8
:203E80003F0B2817390778F0AC014E5F5F4F2417350748F04E0F5F1F50933F0340933E0326
:203EA0008193919302C0E0E0F0E0CF01DF91CF910895CF93DF93009709F487C0FC013297C6
:203EC00013821282C0914003D0914103209781F420813181280F391F80913E0390913F03BD
:203EE0008217930779F5F0933F03E0933E036DC0DE0120E030E0AE17BF0750F412964D9137
:203F00005C9113979D014115510509F1DA01F3CFB383A28340815181840F951F8A179B07B1
:203F200071F48D919C911197840F951F02969183808312968D919C91139793838283211545
:203F4000310529F4F0934103E09340033EC0D9011396FC93EE9312974D915D91A40FB51F04
:203F6000EA17FB0779F480819181840F951F0296D90111969C938E938281938113969C931F
:203F80008E931297E0E0F0E08A819B81009719F0FE01EC01F9CFCE01029628813981820FF1
:203FA000931F20913E0330913F032817390769F4309729F4109241031092400302C0138278
:203FC0001282D0933F03C0933E03DF91CF910895A0E0B0E0EEEEFFE10C94CC20EC01CB0196
:203FE000209719F40E94C11EB8C0FE01E60FF71F9E0122503109E217F30708F4ACC0D9017A
:204000000D911C91119706171707B8F00530110508F49FC0A801445051094617570708F4D6
:2040200098C002501109061B170B019311936D937C93CF010E94591F8CC05B01A01AB10A2B
:204040004E01800E911EA0914003B0914103612C712C60E070E0109709F449C0A815B905F9
:20406000C9F5ED90FC901197670142E0C40ED11CCA14DB0478F147018A189B08640142E04E
:20408000C40ED11C1296BC9012971396AC91B5E0CB16D10440F0B282A38391828082D9011A
:2040A0008D939C9309C00E5F1F4F0E0D1F1DF90111830083EB2DFA2F6115710531F0DB017B
:2040C0001396FC93EE93129744C0F0934103E09340033FC06D917C9111976616770608F456
:2040E0003B01BD0112960D90BC91A02DB4CF60913E0370913F0368157905E9F4681679069A
:20410000D0F440910001509101014115510541F44DB75EB76091040170910501461B570B6C
:20412000E417F507C0F4F0933F03E0933E03F901918380830EC00E94C11E7C01009759F09E
:20414000A801BE010E94BF20CE010E94591FC70104C0CE0102C080E090E0CDB7DEB7EEE0B9
:204160000C94E820FB01DC0104C08D910190801921F441505040C8F7881B990B0895FB01DD
:20418000DC0102C001900D9241505040D8F708952F923F924F925F926F927F928F929F92FB
:2041A000AF92BF92CF92DF92EF92FF920F931F93CF93DF93CDB7DEB7CA1BDB0B0FB6F8942C
:2041C000DEBF0FBECDBF09942A88398848885F846E847D848C849B84AA84B984C884DF80EE
:2041E000EE80FD800C811B81AA81B981CE0FD11D0FB6F894DEBF0FBECDBFED010895F8941D
:20420000FFCF000042038000E803797072090000000000D612A9127E1286129912A812008C
:20422000000000DD1749195F1778176A17BB170D0A006E616E00696E66006F7666002E00C6
:20424000FFFFFFFFFFFFFFFFFFFFFFFFFFFFFFFFFFFFFFFFFFFFFFFFFFFFFFFFFFFFFFFF7E
:20426000FFFFFFFFFFFFFFFFFFFFFFFFFFFFFFFFFFFFFFFFFFFFFFFFFFFFFFFFFFFFFFFF5E
:20428000FFFFFFFFFFFFFFFFFFFFFFFFFFFFFFFFFFFFFFFFFFFFFFFFFFFFFFFFFFFFFFFF3E
:2042A000FFFFFFFFFFFFFFFFFFFFFFFFFFFFFFFFFFFFFFFFFFFFFFFFFFFFFFFFFFFFFFFF1E
:207800000C94343C0C94513C0C94513C0C94513C0C94513C0C94513C0C94513C0C94513C1D
:207820000C94513C0C94513C0C94513C0C94513C0C94513C0C94513C0C94513C0C94513CE0
:207840000C94513C0C94513C0C94513C0C94513C0C94513C0C94513C0C94513C0C94513CC0
:207860000C94513C0C94513C11241FBECFEFD8E0DEBFCDBF11E0A0E0B1E0ECE9FFE702C07E
:2078800005900D92A230B107D9F712E0A2E0B1E001C01D92AD30B107E1F70E942D3D0C94CC
:2078A000CC3F0C94003C982F9595959595959595905D8F708A307CF0282F295A8091C000B5
:2078C00085FFFCCF9093C6008091C00085FFFCCF2093C6000895282F205DF0CF982F8091CF
:2078E000C00085FFFCCF9093C6000895EF92FF920F931F93EE24FF2487018091C00087FD7B
:2079000017C00894E11CF11C011D111D81E4E81682E4F8068FE0080780E0180770F3E09106
:207920000401F091050109958091C00087FFE9CF8091C6001F910F91FF90EF9008950E949A
:20794000763C982F8091C00085FFFCCF9093C60091362CF490330CF09053892F08959755DB
:20796000892F08951F930E949F3C182F0E949F3C1295107F810F1F9108951F93182F882308
:2079800021F00E94763C1150E1F71F9108951F93182F0E94763C803249F0809103018F5FC1
:2079A000809303018530C1F01F9108958091C00085FFFCCF84E18093C6008091C00085FF4A
:2079C000FCCF1093C6008091C00085FFFCCF80E18093C6001F910895E0910401F0910501CF
:2079E00009951F9108950E94763C803241F0809103018F5F80930301853081F00895809177
:207A0000C00085FFFCCF84E18093C6008091C00085FFFCCF80E18093C6000895E0910401AC
:207A2000F09105010995089540E951E08823A1F02D9A28EE33E0FA013197F1F72150304072
:207A4000D1F72D9828EE33E0FA013197F1F721503040D1F7815061F708953F924F925F92B3
:207A60006F927F928F929F92AF92BF92CF92DF92EF92FF920F931F93CF93DF93000080E1A3
:207A80008093C4001092C50088E18093C10086E08093C2005098589A259A81E00E94143D43
:207AA00024E1F22E9EE1E92E85E9D82E0FE0C02E10E1B12EAA24A394B1E49B2EA6E58A2E44
:207AC000F2E57F2EE0E26E2E79E4572E63E5462E50E5352E0E94763C8033B1F18133B9F187
:207AE000803409F46FC0813409F476C0823409F485C0853409F488C0803531F1823521F128
:207B0000813511F1853509F485C0863509F48DC0843609F496C0843709F403C1853709F46A
:207B200072C1863709F466C0809103018F5F80930301853079F6E0910401F0910501099559
:207B40000E94763C803351F60E94F33CC3CF0E94763C803249F78091C00085FFFCCFF0928C
:207B6000C6008091C00085FFFCCF9092C6008091C00085FFFCCF8092C6008091C00085FFEA
:207B8000FCCF7092C6008091C00085FFFCCF6092C6008091C00085FFFCCF5092C6008091A1
:207BA000C00085FFFCCF4092C6008091C00085FFFCCF3092C6008091C00085FFFCCFB09214
:207BC000C60088CF0E94763C863808F4BDCF0E94763C0E94F33C7ECF0E94763C803809F473
:207BE0009CC0813809F40BC1823809F43CC1883909F48FC080E00E94C73C6CCF84E10E949F
:207C0000BD3C0E94F33C66CF85E00E94BD3C0E94F33C60CF0E94763C809306010E94763CA3
:207C2000809307010E94F33C55CF0E94763C803309F41DC183E00E94BD3C80E00E94C73C4F
:207C400049CF0E94763C809309020E94763C8093080280910C028E7F80930C020E94763C88
:207C6000853409F415C18091080290910902892B89F000E010E00E94763CF801E85FFE4F53
:207C800080830F5F1F4F80910802909109020817190788F30E94763C803209F045CF8091E0
:207CA0000C0280FF01C16091060170910701660F771F7093070160930601A0910802B091E8
:207CC00009021097C9F0E8E0F1E09B01AD014E0F5F1FF999FECF32BD21BD819180BDFA9A6C
:207CE000F99A2F5F3F4FE417F50799F76A0F7B1F70930701609306018091C00085FFFCCF16
:207D0000F092C6008091C00085FFFCCFB092C600E1CE83E00E94C73CDDCE82E00E94C73C8A
:207D2000D9CE0E94763C809309020E94763C809308028091060190910701880F991F909306
:207D40000701809306010E94763C853409F4A6C080910C028E7F80930C020E94763C80323E
:207D600009F0B8CE8091C00085FFFCCFF092C600609108027091090261157105B9F140E05F
:207D800050E080910C02A82FA170B82FB27011C0BB2309F45CC0E0910601F0910701319613
:207DA000F0930701E09306014F5F5F4F46175707E8F4AA2369F3F999FECF209106013091CA
:207DC000070132BD21BDF89A90B58091C00085FFFCCF9093C6002F5F3F4F30930701209354
:207DE00006014F5F5F4F4617570718F38091C00085FDE5CE8091C00085FFF8CFE0CE81E029
:207E00000E94C73C67CE0E94763C803209F08CCE8091C00085FFFCCFF092C6008091C000F6
:207E200085FFFCCFE092C6008091C00085FFFCCFD092C6008091C00085FFFCCFC092C6003B
:207E40008091C00085FFFCCFB092C60043CEE0910601F091070194918091C00085FFFCCFA3
:207E60009093C6009CCF80E10E94C73C33CE0E94763C0E94763C182F0E94763C112309F433
:207E800083C0113009F484C08FE00E94C73C22CE80910C02816080930C02E5CE80910C0226
:207EA000816080930C0259CF809107018823880F880B8A2180930B0280910601909107019E
:207EC000880F991F90930701809306018091080280FF09C0809108029091090201969093AA
:207EE000090280930802F894F999FECF1127E0910601F0910701C8E0D1E0809108029091A1
:207F00000902103091F40091570001700130D9F303E000935700E895009157000170013067
:207F2000D9F301E100935700E895099019900091570001700130D9F301E000935700E8954C
:207F40001395103498F011270091570001700130D9F305E000935700E8950091570001707A
:207F60000130D9F301E100935700E8953296029709F0C7CF103011F00296E5CF11248091F8
:1E7F8000C00085FFB9CEBCCE8EE10E94C73CA2CD85E90E94C73C9ECDF894FFCF8000B3
:00000001FF
